:020000040800F2
:100000000000022009000008614E356845F00B052C
:100010003560604E356825F07F4545F0AA4535606E
:100020005D4E356825F0030545F00C0535605B4EE7
:10003000356825F0010545F001053560584E3568F5
:1000400045F470453560574F0FB1013FFCE705F0AF
:1000500000053560534F0FB1013FFCE74FF0807250
:100060004FF4E0234FF4206401F0000142EA03055D
:1000700044EA05014FF0490A4FF4807905F0000584
:1000800006F00006484E356805F00105002DF5D054
:1000900005F0000506F00006BAFBF9F505FB09F6C8
:1000A000BAEB060A0CF0000C4CEA010C4CEA0A0C04
:1000B0003B4E356845F4204535603A4F0FB1013F5E
:1000C000FCE705F000053560364F0FB1013FFCE756
:1000D00008F0000848EA0A0808F00F080AF1010AC7
:1000E0004FEA08382E4E356845EA080535602D4F31
:1000F0000FB1013FFCE705F000053560294F00F026
:10010000000006F000064FF0C9068CEA0600202722
:10011000E7B300F0010BBBF1010F00D01AD1234E61
:10012000356825F0010545F00105356041F66A06A0
:100130000EB1013EFCE71D4E356825F0010545F086
:10014000000535604FEA5000013F41F66A06E6B10E
:10015000013EFCE7154E356825F0010545F0000528
:10016000356041F66A060EB1013EFCE70F4E356878
:1001700025F0010545F0010535604FEA5000013FCB
:1001800041F66A060EB1013EFCE7C1E776E70000E2
:1001900030380240000C02400000024000040240DF
:1001A000140C024080841E0010000240140402401F
:0400000508000000EF
:00000001FF
